{
  "contractName": "CertContract",
  "abi": [
    {
      "inputs": [],
      "payable": false,
      "stateMutability": "nonpayable",
      "type": "constructor"
    },
    {
      "anonymous": false,
      "inputs": [
        {
          "indexed": false,
          "internalType": "address",
          "name": "sender",
          "type": "address"
        },
        {
          "indexed": false,
          "internalType": "string",
          "name": "newca",
          "type": "string"
        }
      ],
      "name": "NewCA",
      "type": "event"
    },
    {
      "anonymous": false,
      "inputs": [
        {
          "indexed": false,
          "internalType": "address",
          "name": "sender",
          "type": "address"
        },
        {
          "indexed": false,
          "internalType": "string",
          "name": "id",
          "type": "string"
        }
      ],
      "name": "NewCert",
      "type": "event"
    },
    {
      "constant": true,
      "inputs": [
        {
          "internalType": "address",
          "name": "",
          "type": "address"
        }
      ],
      "name": "camap",
      "outputs": [
        {
          "internalType": "string",
          "name": "name",
          "type": "string"
        },
        {
          "internalType": "bool",
          "name": "noempty",
          "type": "bool"
        }
      ],
      "payable": false,
      "stateMutability": "view",
      "type": "function"
    },
    {
      "constant": true,
      "inputs": [
        {
          "internalType": "uint256",
          "name": "",
          "type": "uint256"
        },
        {
          "internalType": "uint256",
          "name": "",
          "type": "uint256"
        }
      ],
      "name": "certmap",
      "outputs": [
        {
          "internalType": "string",
          "name": "certid",
          "type": "string"
        },
        {
          "internalType": "string",
          "name": "time",
          "type": "string"
        },
        {
          "internalType": "string",
          "name": "ca",
          "type": "string"
        },
        {
          "internalType": "string",
          "name": "ipfsaddress",
          "type": "string"
        }
      ],
      "payable": false,
      "stateMutability": "view",
      "type": "function"
    },
    {
      "constant": true,
      "inputs": [
        {
          "internalType": "uint256",
          "name": "",
          "type": "uint256"
        }
      ],
      "name": "usermap",
      "outputs": [
        {
          "internalType": "string",
          "name": "name",
          "type": "string"
        },
        {
          "internalType": "bool",
          "name": "noempty",
          "type": "bool"
        }
      ],
      "payable": false,
      "stateMutability": "view",
      "type": "function"
    },
    {
      "constant": false,
      "inputs": [
        {
          "internalType": "uint256",
          "name": "userid",
          "type": "uint256"
        },
        {
          "internalType": "string",
          "name": "name",
          "type": "string"
        },
        {
          "internalType": "string",
          "name": "certid",
          "type": "string"
        },
        {
          "internalType": "string",
          "name": "time",
          "type": "string"
        },
        {
          "internalType": "string",
          "name": "ipfsaddress",
          "type": "string"
        }
      ],
      "name": "addCert",
      "outputs": [],
      "payable": false,
      "stateMutability": "nonpayable",
      "type": "function"
    },
    {
      "constant": true,
      "inputs": [
        {
          "internalType": "uint256",
          "name": "own",
          "type": "uint256"
        }
      ],
      "name": "getCertsLen",
      "outputs": [
        {
          "internalType": "uint256",
          "name": "",
          "type": "uint256"
        }
      ],
      "payable": false,
      "stateMutability": "view",
      "type": "function"
    },
    {
      "constant": false,
      "inputs": [
        {
          "internalType": "string",
          "name": "newca",
          "type": "string"
        }
      ],
      "name": "addCA",
      "outputs": [],
      "payable": false,
      "stateMutability": "nonpayable",
      "type": "function"
    }
  ],
  "bytecode": "0x608060405234801561001057600080fd5b5061129b806100206000396000f3fe608060405234801561001057600080fd5b50600436106100625760003560e01c80631ff7c758146100675780632ccbc61a1461012f5780632e740734146101ea57806356bea85a1461022c578063c72193cd14610421578063fb3f85ad146104d3575b600080fd5b6100a96004803603602081101561007d57600080fd5b81019080803573ffffffffffffffffffffffffffffffffffffffff16906020019092919050505061075d565b604051808060200183151515158152602001828103825284818151815260200191508051906020019080838360005b838110156100f35780820151818401526020810190506100d8565b50505050905090810190601f1680156101205780820380516001836020036101000a031916815260200191505b50935050505060405180910390f35b6101e86004803603602081101561014557600080fd5b810190808035906020019064010000000081111561016257600080fd5b82018360208201111561017457600080fd5b8035906020019184600183028401116401000000008311171561019657600080fd5b91908080601f016020809104026020016040519081016040528093929190818152602001838380828437600081840152601f19601f820116905080830192505050505050509192919290505050610826565b005b6102166004803603602081101561020057600080fd5b8101908080359060200190929190505050610a0b565b6040518082815260200191505060405180910390f35b6102626004803603604081101561024257600080fd5b810190808035906020019092919080359060200190929190505050610a2a565b6040518080602001806020018060200180602001858103855289818151815260200191508051906020019080838360005b838110156102ae578082015181840152602081019050610293565b50505050905090810190601f1680156102db5780820380516001836020036101000a031916815260200191505b50858103845288818151815260200191508051906020019080838360005b838110156103145780820151818401526020810190506102f9565b50505050905090810190601f1680156103415780820380516001836020036101000a031916815260200191505b50858103835287818151815260200191508051906020019080838360005b8381101561037a57808201518184015260208101905061035f565b50505050905090810190601f1680156103a75780820380516001836020036101000a031916815260200191505b50858103825286818151815260200191508051906020019080838360005b838110156103e05780820151818401526020810190506103c5565b50505050905090810190601f16801561040d5780820380516001836020036101000a031916815260200191505b509850505050505050505060405180910390f35b61044d6004803603602081101561043757600080fd5b8101908080359060200190929190505050610cd4565b604051808060200183151515158152602001828103825284818151815260200191508051906020019080838360005b8381101561049757808201518184015260208101905061047c565b50505050905090810190601f1680156104c45780820380516001836020036101000a031916815260200191505b50935050505060405180910390f35b61075b600480360360a08110156104e957600080fd5b81019080803590602001909291908035906020019064010000000081111561051057600080fd5b82018360208201111561052257600080fd5b8035906020019184600183028401116401000000008311171561054457600080fd5b91908080601f016020809104026020016040519081016040528093929190818152602001838380828437600081840152601f19601f820116905080830192505050505050509192919290803590602001906401000000008111156105a757600080fd5b8201836020820111156105b957600080fd5b803590602001918460018302840111640100000000831117156105db57600080fd5b91908080601f016020809104026020016040519081016040528093929190818152602001838380828437600081840152601f19601f8201169050808301925050505050505091929192908035906020019064010000000081111561063e57600080fd5b82018360208201111561065057600080fd5b8035906020019184600183028401116401000000008311171561067257600080fd5b91908080601f016020809104026020016040519081016040528093929190818152602001838380828437600081840152601f19601f820116905080830192505050505050509192919290803590602001906401000000008111156106d557600080fd5b8201836020820111156106e757600080fd5b8035906020019184600183028401116401000000008311171561070957600080fd5b91908080601f016020809104026020016040519081016040528093929190818152602001838380828437600081840152601f19601f820116905080830192505050505050509192919290505050610d9d565b005b6002602052806000526040600020600091509050806000018054600181600116156101000203166002900480601f0160208091040260200160405190810160405280929190818152602001828054600181600116156101000203166002900480156108095780601f106107de57610100808354040283529160200191610809565b820191906000526020600020905b8154815290600101906020018083116107ec57829003601f168201915b5050505050908060010160009054906101000a900460ff16905082565b60001515600260003373ffffffffffffffffffffffffffffffffffffffff1673ffffffffffffffffffffffffffffffffffffffff16815260200190815260200160002060010160009054906101000a900460ff1615151461088657600080fd5b6001600260003373ffffffffffffffffffffffffffffffffffffffff1673ffffffffffffffffffffffffffffffffffffffff16815260200190815260200160002060010160006101000a81548160ff02191690831515021790555080600260003373ffffffffffffffffffffffffffffffffffffffff1673ffffffffffffffffffffffffffffffffffffffff1681526020019081526020016000206000019080519060200190610937929190611119565b507f60f7d052b14e44405330feabb818bd9e79ffc7c448b81448c3238688995c369e3382604051808373ffffffffffffffffffffffffffffffffffffffff1673ffffffffffffffffffffffffffffffffffffffff16815260200180602001828103825283818151815260200191508051906020019080838360005b838110156109cd5780820151818401526020810190506109b2565b50505050905090810190601f1680156109fa5780820380516001836020036101000a031916815260200191505b50935050505060405180910390a150565b6000806000838152602001908152602001600020805490509050919050565b60006020528160005260406000208181548110610a4357fe5b906000526020600020906004020160009150915050806000018054600181600116156101000203166002900480601f016020809104026020016040519081016040528092919081815260200182805460018160011615610100020316600290048015610af05780601f10610ac557610100808354040283529160200191610af0565b820191906000526020600020905b815481529060010190602001808311610ad357829003601f168201915b505050505090806001018054600181600116156101000203166002900480601f016020809104026020016040519081016040528092919081815260200182805460018160011615610100020316600290048015610b8e5780601f10610b6357610100808354040283529160200191610b8e565b820191906000526020600020905b815481529060010190602001808311610b7157829003601f168201915b505050505090806002018054600181600116156101000203166002900480601f016020809104026020016040519081016040528092919081815260200182805460018160011615610100020316600290048015610c2c5780601f10610c0157610100808354040283529160200191610c2c565b820191906000526020600020905b815481529060010190602001808311610c0f57829003601f168201915b505050505090806003018054600181600116156101000203166002900480601f016020809104026020016040519081016040528092919081815260200182805460018160011615610100020316600290048015610cca5780601f10610c9f57610100808354040283529160200191610cca565b820191906000526020600020905b815481529060010190602001808311610cad57829003601f168201915b5050505050905084565b6001602052806000526040600020600091509050806000018054600181600116156101000203166002900480601f016020809104026020016040519081016040528092919081815260200182805460018160011615610100020316600290048015610d805780601f10610d5557610100808354040283529160200191610d80565b820191906000526020600020905b815481529060010190602001808311610d6357829003601f168201915b5050505050908060010160009054906101000a900460ff16905082565b60011515600260003373ffffffffffffffffffffffffffffffffffffffff1673ffffffffffffffffffffffffffffffffffffffff16815260200190815260200160002060010160009054906101000a900460ff16151514610dfd57600080fd5b600015156001600087815260200190815260200160002060010160009054906101000a900460ff1615151415610e875783600160008781526020019081526020016000206000019080519060200190610e57929190611119565b50600180600087815260200190815260200160002060010160006101000a81548160ff0219169083151502179055505b610e8f611199565b6040518060800160405280858152602001848152602001600260003373ffffffffffffffffffffffffffffffffffffffff1673ffffffffffffffffffffffffffffffffffffffff1681526020019081526020016000206000018054600181600116156101000203166002900480601f016020809104026020016040519081016040528092919081815260200182805460018160011615610100020316600290048015610f7c5780601f10610f5157610100808354040283529160200191610f7c565b820191906000526020600020905b815481529060010190602001808311610f5f57829003601f168201915b5050505050815260200183815250905060008087815260200190815260200160002081908060018154018082558091505090600182039060005260206000209060040201600090919290919091506000820151816000019080519060200190610fe69291906111c1565b5060208201518160010190805190602001906110039291906111c1565b5060408201518160020190805190602001906110209291906111c1565b50606082015181600301908051906020019061103d9291906111c1565b505050507feb85dc33a12560f9d6695a4d7b936cb37b74903789b452fbe3edb46970be31d73385604051808373ffffffffffffffffffffffffffffffffffffffff1673ffffffffffffffffffffffffffffffffffffffff16815260200180602001828103825283818151815260200191508051906020019080838360005b838110156110d65780820151818401526020810190506110bb565b50505050905090810190601f1680156111035780820380516001836020036101000a031916815260200191505b50935050505060405180910390a1505050505050565b828054600181600116156101000203166002900490600052602060002090601f016020900481019282601f1061115a57805160ff1916838001178555611188565b82800160010185558215611188579182015b8281111561118757825182559160200191906001019061116c565b5b5090506111959190611241565b5090565b6040518060800160405280606081526020016060815260200160608152602001606081525090565b828054600181600116156101000203166002900490600052602060002090601f016020900481019282601f1061120257805160ff1916838001178555611230565b82800160010185558215611230579182015b8281111561122f578251825591602001919060010190611214565b5b50905061123d9190611241565b5090565b61126391905b8082111561125f576000816000905550600101611247565b5090565b9056fea265627a7a72315820cf9bdd90d9a86a7fbb76522528bc538fa9039ad8d43c0fb9bf17ab19ca2c049c64736f6c63430005100032",
  "source": "pragma solidity ^0.5.0;\n/* pragma experimental ABIEncoderV2; */\n\ncontract CertContract {\n\n    struct cert{\n      string certid;\n      string time;\n      string ca;\n      string ipfsaddress;\n    }\n\n    struct user{\n      string name;\n      bool noempty;\n    }\n\n    mapping(uint => cert[])public certmap;\n    mapping(uint => user)public usermap;\n    mapping(address => user)public camap;\n\n    constructor() public {\n    }\n\n    event NewCert(address sender,string id);\n\n// 添加记事\n\n    function addCert(uint userid, string memory name,string memory certid,string memory time,string memory ipfsaddress) public {\n        require(camap[msg.sender].noempty==true);\n        if(usermap[userid].noempty== false){\n          usermap[userid].name = name;\n          usermap[userid].noempty=true;\n        }\n        cert memory c = cert(certid,time,camap[msg.sender].name,ipfsaddress);\n        certmap[userid].push(c);\n        emit NewCert(msg.sender,certid);\n    }\n\n    function getCertsLen(uint own) public view returns (uint) {\n        return certmap[own].length;\n    }\n\n    event NewCA(address sender,string newca);\n\n    function addCA(string memory newca) public {\n        require(camap[msg.sender].noempty==false);\n        camap[msg.sender].noempty=true;\n        camap[msg.sender].name = newca;\n        emit NewCA(msg.sender, newca);\n    }\n\n}\n",
  "sourcePath": "/home/zed/noteonChain/pet-shop-box/contracts/CertContract.sol",
  "compiler": {
    "name": "solc",
    "version": "0.5.16+commit.9c3226ce.Emscripten.clang"
  },
  "schemaVersion": "3.4.5",
  "updatedAt": "2022-03-25T08:43:25.460Z",
  "networkType": "ethereum",
  "devdoc": {
    "methods": {}
  },
  "userdoc": {
    "methods": {}
  }
}